:020000040000FA
:06000000F4EF0AF012000B
:020006001200E6
:060008008FEF06F012006C
:01000E0000F1
:0600180091EF06F012005A
:02001E000100DF
:0C0020000E000000D600000001000000EF
:04002C005AEC06F094
:10003000A09A6A6A686A706A54EC06F0EFEC05F000
:10004000DF6ADF50106E116A080E105C000E115846
:1000500010E2DF50040DF3CFE9FFF4CFEAFF000E0A
:10006000E926040EEA22EE6AEE6AEE6AEE6ADF2AFA
:10007000E8D76D8C6E6A6D986D9C68A607D06896FF
:100080000001AF6BB46BB56BB66BF7D70001010E17
:10009000C66FC76FC86BC96BBC6BDF6A020EDF5CD3
:1000A00011E2EA6ADF345DEC06F0EA22EE6AED6AFC
:1000B000EA6ADF3464EC06F0EA22EE6AED6AA8EC44
:1000C00005F0ECD70001080EA76F040EA86F160EFE
:1000D000706E0401200E026F040E036F080E016F94
:1000E000840E006F00019D6B9C6BE5527AEF05F06A
:1000F0005AEC06F000019C510BE16D6A696AEFEC65
:1001000005F06DB602D06D86FCD70001010E9C6F24
:100110009C0508E16DBA06D0686A696A69806988D9
:10012000020E9C6F6850040B05E06950040B02E05E
:10013000689424DB6DB244D06850010B08E069502C
:10014000010B05E073DF0001040E9C6F689068509E
:10015000100B05E06950100B02E006DB689868ACF4
:100160000FD069AC05D0F6EC05F0730E67EC05F026
:10017000689C0001C45101E0C407C45101E1EFD8FB
:100180006850200B04E06950200B01E0DDDA685074
:10019000020B0BE06950020B08E0F6EC05F0E66894
:1001A0007F0EE66E6BEC06F06A6A040E0001E76EE5
:1001B0009C19E8AE02D0E73402D0E7509C5D02E221
:1001C000A19A2ED069A62BD0DF6A040EDF5C27E24D
:1001D00068A625D06CCFBDF00001BD51780BE84278
:1001E000E842E842BE6F6896BDB504D0BE5172ECDD
:1001F00006F003D0BE5177EC06F0EA22EF70BE5154
:1002000002E1C8DA0AD0000EE66EE66ABD0EE66EBE
:10021000000EE66E720E67EC05F0DF2AD6D7A19AC3
:10022000E5527AEF05F02EEC06F0FD0EDBA403D0CC
:10023000E66ADFEC05F0FD0EDBA204D0010EE66EEF
:10024000DFEC05F0FE0EDB50116A700F106E0F0E22
:10025000D9EC05F06BEC05F0FD0EDBCFEFFF020EE5
:10026000E15C02E2E16AE552E16E7AEF05F02EEC24
:1002700006F0FD0EDB5003E062EC05F002D099ECD5
:1002800005F0C5EC05F0D9CFE9FFDACFEAFFEE5073
:10029000ED1003E1F36AF46A28D06BEC05F086EC0C
:1002A00006F0FB0EDBCFEEFFFC0EDBCFEDFF6BECC1
:1002B00005F0EE52FA0EDBCFEFFF400E7CEC06F0BD
:1002C000880E8BEC06F0FD0EDB5003E062EC05F0CF
:1002D00002D099EC05F0EA22EF74DECF10F0DDCF0A
:1002E00011F010C0F3FF11C0F4FF020EE15C02E256
:1002F000E16AE552E16E7AEF05F02EEC06F0FE0EB3
:10030000DB5003E13CEC06F009D09EEC05F01CEC60
:1003100006F09EEC05F0010F1CEC06F0020EE15C0D
:1003200002E2E16AE552E16EE5D3DFDB6DA816D0AB
:100330004DEC06F0400EEE16EE6AEE6AEE6A4DECFB
:1003400006F0EE7CBFDBEA22EF74400E106E4DEC3F
:1003500006F01050EF164DEC06F0EF7CCBD3000109
:10036000C65122E1010EC66FC7511EE1010EC76FD3
:10037000020EAC5D07E1B4DBEE52EF6AB1DBC80EF2
:10038000EF6E1200AC0510E1BF6BC0DBEE52080E41
:10039000EF6EBCDB28EC06F0B9DB840EEF6E010ECD
:1003A000BF6F8CDB800EEF6E12000001C86BC96B53
:1003B000020EAC5D06E180EC06F0ADDB17EC06F05A
:1003C00010D0B0510401265D0001B151040127593C
:1003D00004E226C4B0F027C4B1F061D881DB9BDB16
:1003E0007FDBC80EEF6E12002EEC06F0000EDE6E04
:1003F000040EDD6EA3DB040DF4CF11F0D9CFE9FFBD
:10040000DACFEAFFF350EE261150ED2264DBEF9EC7
:10041000FD0EDB5002E18DDB01D054DBEA22DECFA2
:10042000EEFFDDCFEDFF57DBEF9C55DB040EE92639
:10043000000EEA22EF8C020EE15C02E2E16AE55274
:10044000E16E58D36D980001AFBF0DD0B4AF09D0A5
:10045000020EAC6FC95101E1A8DF0001C76BC66B8A
:1004600012003CEF06F0040120AF0DD00001010E98
:10047000AC6FC85101E199DF0001C76BC66BC55174
:100480000DE1AFEF01F00001020EAC6F17DB840E3F
:10049000EF6EC76BC66BC55101E161DF12005AEC0C
:1004A00006F0080EDF6E0001B05D000EB1590AE2E1
:1004B000B0C0DFFFAB5102E1010E03D0AB0502E19A
:1004C000020EAB6FDF50116AE850B05DB06F115093
:1004D000B159B16F05DBEE52DFCFEFFF280EB96FD8
:1004E000040EBA6FAFB10DD0DF5017E0ADC0F6FF0C
:1004F000AEC0F7FFAD2B000EAE230800F55038DB81
:10050000F3D7DF500AE0ADC0E9FFAEC0EAFFAD2B84
:10051000000EAE23EF502CDBF4D7E552EBD29EDB7E
:10052000F5DAEE52EFCFDFFFDFCF10F01050000111
:10053000B55D000EB65902E2B5C0DFFFDF50106EA8
:10054000116AE850B55DB56F1150B659B66F010E1E
:10055000DB6ADF50F36E010EDBCFF4FFF350F45C87
:1005600016E2010EDB50EA6A280FE96E040EEA2259
:10057000EF50E66EB2C0E9FFB3C0EAFFB22B000E47
:10058000B323E552E750EF6E010EDB2AE2D7000EEF
:10059000D880B555000EB6550DE2B2DBBCDAB6DA3E
:1005A000EF50400B03E143DBC80E02D040DB880E66
:1005B000EF6E12D083DA840EEF6EB751B81107E0F8
:1005C00005D0B8C0FAFF0001B751F96EFADF00019B
:1005D000B49FC55101E1C3DE020EE15C02E2E16AB3
:1005E000E552E16E87D266DB0001AF8F5DDB200E46
:1005F000E66EE66AE66A000EE66E040E92DA6D8C2E
:10060000DF6A020EDF5C02E2A3DAFBD70BDB9E0E91
:10061000E66E000E86DA6D9C0001080EA76F040ED0
:10062000A86F000E9F6F040EA06F9FC0A1F0A26F75
:1006300022C49DF09D5102E1100E0BD0010EE66E1A
:10064000E66A9D0EE66E000EE66E010E40DA0001CF
:10065000200E9C6FE5524ED2800E0401205D38E1E1
:100660000001C00EAF6F04012351030A1AE0010A12
:1006700009E0030A2BE10001B80EAD6F120EAE6F58
:10068000120E1ED0C1DA860EF626130EA0DA020E66
:100690000001B3DAF5CFB0F0030EAFDAF5CFB1F069
:1006A0001200030E225D0FE2AFDA880EF626130E5B
:1006B0008EDAADC0F6FFAEC0F7FF0800F5500001BE
:1006C000B06FB16B12000001AF6B12000001AF6B95
:1006D0001200C4DA0401286B296B20511F0B020A97
:1006E00011E0030A0CE0010A1EE10001AF8F0401D2
:1006F00028810001BB0517E10401288314D0000103
:10070000AF8F11D00001AF8F040124BF02D0BBDA3C
:1007100001D0BEDA3ADAC4DA06E0DDD9EF50040BD4
:1007200002E0010E286F0001AFAF07D0280EAD6FB9
:10073000040EAE6FAF81020EB06F020EE15C02E2FA
:10074000E16AE552E16ED6D170A00CD0DFD9EF504E
:10075000800807E1C5D9EF50840803E1D7D98C0E92
:10076000EF6E7090689A1200698468986D8200013B
:10077000010EBC6F10DA750E67EF05F00001BC6B5F
:100780000ADA740EA4D96D92699468A402D06894B0
:10079000FCD712008FDA00012D0EC46FFD0EBD15BF
:1007A00039E17E0EBD15E8407F0B040DF3CF9FF0BD
:1007B000F4CFA0F0000E9F27040EA0239FC0A1F04D
:1007C000A0C0A2F0A175A2D9EF503C0BE842E842CC
:1007D0000D081EE1DF6A080EDF5C16E297D9020EF3
:1007E000E926000EBFD9EF50E66EDF50EA6A200F0F
:1007F000E96E040EEA22E552E750EF6E87D986DAF9
:10080000EE2AEF22DF2AE7D781D922DA0AD807D0E9
:1008100023D805D0FD0EBD15040801E12CD8E55202
:1008200069D10001AB6BC56BC86BC96BBF6BAC6B9F
:1008300057D9EF9EA77554D9EF9EA775F8D9EF9EAB
:10084000AF6BB06BB16BB46BB56BB66B4ED8A3D955
:10085000030E3DD922EF02F0020E0001AC5D02E171
:100860008FEF02F0AC6BBF5104E128D98C0EEF6E14
:100870001200BF6B12001EDA33D9EF50400B01E0BB
:10088000010EDF6E0001A775080E9C5D08E122C411
:100890006EFF6E5002E0100E01D0040E9C6FAC058E
:1008A00013E11ED938D9FBDD020E0001AB5D03E177
:1008B00017D9840E07D0DF5003E112D9C80E02D039
:1008C0000FD9880EEF6E0FD0B4AF0CD0B751B8115E
:1008D00007E005D0B8C0FAFF0001B751F96EFADFA2
:1008E0000001B49FAC6BE55205D104012051600BAF
:1008F000E842E842E842E842E842000901E012002A
:1009000021510C0A45E00B0A3FE00C0A31E0010AD4
:1009100022E00B0A1EE0020A1CE0030A18E0080AA3
:1009200010E0010A0CE00F0A08E0030A01E01200DF
:100930000001AF8F080E9C6F12002CEF03F0F3EF55
:1009400002F000019D0EAD6F000EAE6F0CD069EF8E
:1009500003F0C9EF04F024510001AD6FAE6B9E0EA1
:10096000AD27000EAE23AF81010EB06FAF8F120026
:100970000001AF8F04012451EA6A9E0FE96E000E58
:10098000EA2222C4EFFF120006D9020E67EF05F03B
:100990001200ABD8050EE1260401220510E120511A
:1009A0001F0B00090CE10001AF8F030E0401215D54
:1009B00004E10001010EBB6F02D00001BB6B04011A
:1009C000225101E074D020511F0B020870E1245124
:1009D0000F0B00096CE024510F0B010868E3200E97
:1009E00000019C5D64E1AF8F040124BF04D04BD9AA
:1009F000CCD8D7D803D04CD9C8D8D7D8EA22020E41
:100A0000EFCFDBFF08D9010B03E1000EDF9401D02B
:100A1000DF8424BF02D037D901D03AD9EA22DECF11
:100A2000EEFFDDCFEDFF030E215D0CE139D907E0CC
:100A300024BF02D0B6D801D0B8D8EA22EF82840E03
:100A40006AD935D0DF742CD906E045D8EF9E43D85B
:100A5000EF8C08D902D03FD8EF8CDF74DCD8020BC2
:100A600002E11ED90DE0040124BF02D09AD801D0C2
:100A70009CD8EA22EF923B0E106E3ED9F3D802D0FA
:100A80003B0E3AD9040124510F0B116A700F106EFE
:100A90000F0E1122030E10C0DBFF040E11C0DBFF8E
:100AA000030EDBCFE9FF040EDBCFEAFFEF90050E6C
:100AB000E15C02E2E16AE552E16E1CD021D9C8D8BE
:100AC00017EF06F0FE0EEA6ADB345DEF06F0E66E25
:100AD000E66A6BEF06F0DECFE9FFDDCFEAFF12003A
:100AE000A7C0E9FFA8C0EAFF1200D9CFE6FFE1CF17
:100AF000D9FF1200E552E7CFD9FF120024510F0BA6
:100B0000E96EEA6AD890E936EA3612009FC0E9FF3A
:100B1000A0C0EAFF1200FAD8280EEE6E040EED6EA9
:100B20001200E66E9DEC0AF0106E050EE15E1050AC
:100B30001200FE0EEA6ADB3464EF06F0FD0EDB50B5
:100B4000E824126EFE0EDB50040DF3501224120046
:100B5000DF50CDD8EA22EF6ADF50C4D8EA22EF6A2C
:100B6000DF2A1200EA22EE50EFCFEAFFE96E120010
:100B7000E66EB9C0E9FFBAC0EAFFB92B000EBA238E
:100B8000E552E750EF6EDF061200EA22EECFDEFFFD
:100B9000EDCFDDFF1200000EE66EE66AE66EE66A55
:100BA000120024510F0B72EF06F024510F0B77EF58
:100BB00006F0112210C0DEFF11C0DDFF1200FE0E94
:100BC000DBCFE6FFF4EC01F0E552E5521200F7222C
:100BD0000900F5CFADF00A00F5CFAEF01200160E09
:100BE0006F6E9F0E6B6E7B0E696E1200010EE66ECD
:100BF000E66A000EE66EE66A1200F76AAD25F66E4A
:100C0000AE51F722080012002251F66EF76AD89012
:100C1000F636F7361200D950020FE96EDACFEAFF46
:100C2000EF501200010EE66EE66AE66A1200A1C0FD
:100C3000E9FFA2C0EAFF1200040DF3CF10F0F4CFD9
:100C400011F0000E1026040EB4DF840E8BEF06F0B8
:100C50005DD8200EEE6E040EED6E120046DF020E21
:100C6000E1261200020EE66EE66ADECFE6FFDDCF79
:100C7000E6FF050E67EF05F021DF8C0EEF6E30DF2B
:100C8000840EEF6E12003ADFA30EE926000E12006A
:100C900035DFA70EE926000E120014DFB2EF05F0D3
:100CA0001ADFEF50800B1200BDDF710EE66E0F0EE3
:100CB00091EF05F01ADFE6521200FE0BEA36E96EFC
:100CC000A70EE926000E1200FE0BEA36E96EA30E0F
:100CD000E926000E120095EC08F0106E060EE15E9B
:100CE00010501200EA6AC20FE96E000E1200EA6AA2
:100CF000C00FE96E000E1200EEDEE850EF16120093
:100D000096DFEE52080EEF6E17EF06F0020EE926A0
:0E0D1000000EEA221200DFDEE850EF121200A1
:020D1E008ADA6F
:100D20001100D8CFE4FFE0CFE4FFE46E83DAE550B2
:100D3000E5CFE0FFE5CFD8FF100004D878EC00F055
:100D400027D8FCD70D0EC16E02D816EF00F09480A4
:100D500092809282AE0EC06E050EC26E460ECD6EB1
:100D60007B0ECA6EE90ECB6E0001010E776F938881
:100D7000938A8150100B01E0010E606F8150200BAF
:100D800001E0010E616F726B736B746B756B120017
:100D900058DA090EE1260001770502E178D90CD076
:100DA0007807000E795B7A5B7B5B785179117A1159
:100DB0007B1102E1010E776F81A895D9200E000109
:100DC000E76E9C19E8AE02D0E73402D0E7509C5D94
:100DD00001E2E7D06D50020B01E0E3D00001D651F3
:100DE00001E0D9D0C282010EDB6A000ECF6ECE6E5A
:100DF0009E909E92C80EDF6ECD80CA84DF060AE008
:100E00009EB206D09EA0FCD7010EDB2A9E90F8D79A
:100E10009E92F4D7CD90CA94010EDBCF10F0116AE8
:100E2000126A136A100ED890103611361236133625
:100E3000E806F9E1CF50156A166A176A16C017F06E
:100E400015C016F0156E146A145010261550112294
:100E50001650122217501322CE50186E196A1A6AB1
:100E60001B6AE8501026195011221A5012221B50EA
:100E70001322050E10C0DBFF060E11C0DBFF070EAC
:100E800012C0DBFF080E13C0DBFF0001050E7C6FF4
:100E9000A3D9400E096E420E0A6E0F0E0B6E8AD950
:100EA00010C07EF006DAA00E096E860E0A6E010EE4
:100EB0000B6E80D910C080F0FCD9100E096E270E81
:100EC0000A6E0B6A77D910C082F0F3D9E80E096E6A
:100ED000030E0A6E0B6A6ED910C084F0EAD9640E54
:100EE000096E0A6A0B6A66D910C086F0C4D962D945
:100EF00010C088F0C0D9D3D9ADD910C08AF0000194
:100F0000060E8C6FC450136A136E126AC350000130
:100F10001224106E000E1320116E030E10C0DBFFA2
:100F2000040E11C0DBFF0001070E8E6F7CD9E80EA6
:100F30000B6E030E0C6E5CD90001906F74D9640EB9
:100F40000B6E0C6A55D90001926F6DD90A0E0B6EAB
:100F50000C6A4ED90001946F66D90A0E0B6E0C6AAA
:100F600098D902C010F003C011F01D0E0224000138
:100F7000966F080E986F090E996F976F956F936F24
:100F8000916F8F6F8D6F8B6F896F876F856F836F99
:100F9000816F7F6F7D6F0A0EE66EB7EC0AF0E55247
:100FA00007D8090EE15C02E2E16AE552E16E4ED13A
:100FB00000017251731102E1000E08D072C0E9FF06
:100FC00073C0EAFFEF50800B01E0010E000925E13C
:100FD0000501006B016B0001D651EA6A7C0FE96ED6
:100FE000000EEA22EFCF02F50501036B046B056BDF
:100FF000066B076B080EE66E000EE66E050EE66EDB
:10100000010EE66E3ED9F3CF72F0F4CF73F000011B
:10101000D62BD6511D0801E2D66B00017451751113
:1010200002E1000E08D074C0E9FF75C0EAFFEF507E
:10103000800B01E0010E00090BE105010001776B57
:10104000E00E786F220E796F020E7A6F7B6BDDD81F
:1010500012008150100B01E0010E0001605D07E0FD
:101060008150100B01E0010E606F81A8010C000C93
:101070008150200B01E0010E0001615D07E081500D
:10108000200B01E0010E616F81AA010C000C12001F
:101090001200D7D8020EE126600ED36E200EDE6E4F
:1010A000030EDD6EDFCF10F0DF06010EDBCF11F097
:1010B00001E2DB0610501110F5E1020EE15C02E2E4
:1010C000E16AE552E16EC2D012001200C7EF09F0EA
:1010D00012001E0EE66E010EE66E13EC01F0E552F4
:1010E000E55205EF09F00001BB051EE10001BC055A
:1010F0001BE1CFDF6D920001BC6B0001100E9A6FF7
:101100000E0E9B6F9A07000E9B5B9A519B11FAE1A2
:101110006D84080E9A6F070E9B6F9A07000E9B5BFB
:101120009A519B11FAE16D9412008BD8FD0EDBCF22
:1011300006F0FE0EDBCF07F0050E061801E10750A2
:1011400036E0E868061802E17F0E07182FE0030E6C
:10115000061801E1075028E0020E061801E10750C9
:1011600021E0010E061801E107501AE0740E06187E
:1011700001E1075013E0750E061801E107500CE07D
:10118000730E061801E1075005E0720E06180FE114
:1011900007500DD099DF0BD07BDF09D07ADF07D065
:1011A00098DF05D095DF03D091DF01D08EDF010EEF
:1011B0004DD0120074D879EC0AF004C010F005C0CC
:1011C00011F006C012F007C013F00A0E096E0A6A89
:1011D0000B6A0C6A2AEF09F0DBCF10F0060EDBCFAA
:1011E00011F0070EDBCF12F0080EDBCF13F0120068
:1011F00050D806C010F007C011F00A0E0B6E0C6A32
:10120000CEEC0AF01D0E02241200010EE66E080E4E
:10121000E66E050EE66EE66A010E33D8F3CF74F083
:10122000F4CF75F01200030EDBCF10F0040EDBCF0D
:1012300011F01200DACFE4FFE652E552E5CFDAFF13
:101240001200D9CFE6FFE1CFD9FF1200E552E7CF78
:10125000D9FF120079EC0AF000C010F001C011F0C3
:1012600002C012F003C013F01D0E1026000E112252
:101270001222132212001DD80A0E096E0A6A0B6A86
:101280001200E66E37EC01F0106E050EE15E1050B4
:10129000120010C006F011C007F0CEEF0AF00C6A81
:1012A00010C004F011C005F012C006F013C007F022
:0812B0001200050EECEF08F03E
:0812B800120100020000000811
:1012C000D8045500010001020001090229000101B2
:1012D00000E03209040000020301010009211101AC
:1012E0000001223F000705810308000107050103F3
:1012F0000800010403090434034D0069006300720F
:10130000006F0063006800690070002000540065F1
:1013100000630068006E006F006C006F006700796A
:1013200000200049006E0063002E001C034B006586
:1013300000790062006F00610072006400200044C8
:101340000065006D006F0005010906A10105071980
:10135000E029E715002501750195088102950175C1
:101360000881039505750105081901290591029564
:101370000175039103950675081500256505071984
:0E1380000029658100C0CA12F312F7122B1368
:02138E00040158
:1013900020511F0B010801E01200245101E012004E
:1013A000060E215D1BE12351230A18E0010A0CE01F
:1013B000030A14E100019D0511E10001DC0EAD6F8F
:1013C000120EAE6F090E06D00001470EAD6F130E60
:1013D000AE6F3F0EB06FB16BC00EAF6F0401205106
:1013E000600BE842E842E842E842E842010801E0D6
:1013F000120021510B0A28E0080A1BE0090A13E039
:10140000080A07E00B0A03E0080A23E01200D9EFFC
:1014100008F00001D40EAD6F000EAE6F010EB06F7C
:10142000B16BC10E0FD00001800EAF6F23C4D4F09A
:1014300012000001D50EAD6F000EAE6F010EB06F41
:10144000B16B810EAF6F12000001800EAF6F22C42E
:04145000D5F01200C1
:0C1454001E0EF66E000EF76E000EF86E15
:1014600000010900F550CF6F0900F550D06F03E17E
:10147000CF6701D03DD00900F550CA6F0900F55083
:10148000CB6F0900F550CC6F09000900F550E96EEB
:101490000900F550EA6E090009000900F550CD6F0A
:1014A0000900F550CE6F09000900F6CFD1F0F7CF53
:1014B000D2F0F8CFD3F0CAC0F6FFCBC0F7FFCCC054
:1014C000F8FF0001CD5302E1CE5307E00900F550CB
:1014D000EE6ECD07F8E2CE07F9D7D1C0F6FFD2C045
:1014E000F7FFD3C0F8FF0001CF07000ED05BBFD7D6
:0214F0001200E8
:0E14F200036A026A016A006A200EE76ED89053
:10150000043605360636073600360136023603360F
:101510000950005C0A5001580B5002580C500358F7
:1015200009E30950005E0A50015A0B50025A0C5050
:0A153000035A042AE72EE4D7120044
:06153A00FE0EE3CFE9FF05
:10154000FF0EE3CFEAFFE9CFF3FFEACFF4FFFB0E94
:10155000E35003E1FC0EE35009E0FB0EE30602E278
:0E156000FC0EE306FD0EE350EE6EF1D7120016
:02156E00FF0E6E
:10157000E3501D6EEF0E01D0F30EE76EE72EBEEFC7
:101580000AF00C0E1C6EE76AE72EC4EF0AF01C2E60
:0C159000C3EF0AF01D2EBCEF0AF01200A1
:04159C00036A026A72
:1015A000100EE76ED89006360736023603360B501B
:1015B000025C0C50035805E30B50025E0C50035ABA
:0815C000062AE72EF0D7120005
:0815C800000EF36E00EE00F0CE
:1015D000080E01D81200EA6002D0EE6AFCD7F35080
:0815E000E9601200EE6AFCD77D
:0815E80013EE00F023EE00F009
:1015F000F86A0F9C2AEC0AF003EC00F09DEC06F070
:04160000FBD7120002
:020000040030CA
:0100000020DF
:010001000EF0
:010002003FBE
:010003001EDE
:010005008179
:010006008178
:010008000FE8
:01000900C036
:01000A000FE6
:01000B00E014
:01000C000FE4
:01000D0040B2
:00000001FF
